{
  "_format": "hh3-artifact-1",
  "contractName": "AgentRegistry",
  "sourceName": "contracts/AgentRegistry.sol",
  "abi": [
    {
      "inputs": [
        {
          "internalType": "address",
          "name": "agenticIdContractAddress",
          "type": "address"
        }
      ],
      "stateMutability": "nonpayable",
      "type": "constructor"
    },
    {
      "anonymous": false,
      "inputs": [
        {
          "indexed": true,
          "internalType": "uint256",
          "name": "agentId",
          "type": "uint256"
        },
        {
          "indexed": false,
          "internalType": "string",
          "name": "activityType",
          "type": "string"
        }
      ],
      "name": "AgentActivityRecorded",
      "type": "event"
    },
    {
      "anonymous": false,
      "inputs": [
        {
          "indexed": true,
          "internalType": "uint256",
          "name": "agentId",
          "type": "uint256"
        },
        {
          "indexed": true,
          "internalType": "address",
          "name": "agentAddress",
          "type": "address"
        },
        {
          "indexed": true,
          "internalType": "address",
          "name": "contributor",
          "type": "address"
        },
        {
          "indexed": false,
          "internalType": "uint256",
          "name": "agenticTokenId",
          "type": "uint256"
        }
      ],
      "name": "AgentRegistered",
      "type": "event"
    },
    {
      "anonymous": false,
      "inputs": [
        {
          "indexed": true,
          "internalType": "uint256",
          "name": "agentId",
          "type": "uint256"
        },
        {
          "indexed": false,
          "internalType": "enum AgentRegistry.AgentStatus",
          "name": "newStatus",
          "type": "uint8"
        }
      ],
      "name": "AgentStatusUpdated",
      "type": "event"
    },
    {
      "anonymous": false,
      "inputs": [
        {
          "indexed": false,
          "internalType": "address",
          "name": "newContract",
          "type": "address"
        }
      ],
      "name": "AgenticIdContractUpdated",
      "type": "event"
    },
    {
      "inputs": [
        {
          "internalType": "uint256",
          "name": "agentId",
          "type": "uint256"
        },
        {
          "internalType": "enum AgentRegistry.AgentStatus",
          "name": "newStatus",
          "type": "uint8"
        }
      ],
      "name": "adminUpdateAgentStatus",
      "outputs": [],
      "stateMutability": "nonpayable",
      "type": "function"
    },
    {
      "inputs": [],
      "name": "agenticIdContract",
      "outputs": [
        {
          "internalType": "contract IERC7857",
          "name": "",
          "type": "address"
        }
      ],
      "stateMutability": "view",
      "type": "function"
    },
    {
      "inputs": [
        {
          "internalType": "uint256",
          "name": "agentId",
          "type": "uint256"
        }
      ],
      "name": "getAgent",
      "outputs": [
        {
          "components": [
            {
              "internalType": "uint256",
              "name": "id",
              "type": "uint256"
            },
            {
              "internalType": "address",
              "name": "agentAddress",
              "type": "address"
            },
            {
              "internalType": "address",
              "name": "contributor",
              "type": "address"
            },
            {
              "internalType": "uint256",
              "name": "agenticTokenId",
              "type": "uint256"
            },
            {
              "internalType": "string",
              "name": "metadataURI",
              "type": "string"
            },
            {
              "internalType": "enum AgentRegistry.AgentStatus",
              "name": "status",
              "type": "uint8"
            },
            {
              "internalType": "uint256",
              "name": "totalPriceUpdates",
              "type": "uint256"
            },
            {
              "internalType": "uint256",
              "name": "totalNegotiations",
              "type": "uint256"
            },
            {
              "internalType": "uint256",
              "name": "registeredAt",
              "type": "uint256"
            },
            {
              "internalType": "uint256",
              "name": "updatedAt",
              "type": "uint256"
            }
          ],
          "internalType": "struct AgentRegistry.Agent",
          "name": "",
          "type": "tuple"
        }
      ],
      "stateMutability": "view",
      "type": "function"
    },
    {
      "inputs": [
        {
          "internalType": "address",
          "name": "agentAddress",
          "type": "address"
        }
      ],
      "name": "getAgentByAddress",
      "outputs": [
        {
          "components": [
            {
              "internalType": "uint256",
              "name": "id",
              "type": "uint256"
            },
            {
              "internalType": "address",
              "name": "agentAddress",
              "type": "address"
            },
            {
              "internalType": "address",
              "name": "contributor",
              "type": "address"
            },
            {
              "internalType": "uint256",
              "name": "agenticTokenId",
              "type": "uint256"
            },
            {
              "internalType": "string",
              "name": "metadataURI",
              "type": "string"
            },
            {
              "internalType": "enum AgentRegistry.AgentStatus",
              "name": "status",
              "type": "uint8"
            },
            {
              "internalType": "uint256",
              "name": "totalPriceUpdates",
              "type": "uint256"
            },
            {
              "internalType": "uint256",
              "name": "totalNegotiations",
              "type": "uint256"
            },
            {
              "internalType": "uint256",
              "name": "registeredAt",
              "type": "uint256"
            },
            {
              "internalType": "uint256",
              "name": "updatedAt",
              "type": "uint256"
            }
          ],
          "internalType": "struct AgentRegistry.Agent",
          "name": "",
          "type": "tuple"
        }
      ],
      "stateMutability": "view",
      "type": "function"
    },
    {
      "inputs": [
        {
          "internalType": "uint256",
          "name": "tokenId",
          "type": "uint256"
        }
      ],
      "name": "getAgentByTokenId",
      "outputs": [
        {
          "components": [
            {
              "internalType": "uint256",
              "name": "id",
              "type": "uint256"
            },
            {
              "internalType": "address",
              "name": "agentAddress",
              "type": "address"
            },
            {
              "internalType": "address",
              "name": "contributor",
              "type": "address"
            },
            {
              "internalType": "uint256",
              "name": "agenticTokenId",
              "type": "uint256"
            },
            {
              "internalType": "string",
              "name": "metadataURI",
              "type": "string"
            },
            {
              "internalType": "enum AgentRegistry.AgentStatus",
              "name": "status",
              "type": "uint8"
            },
            {
              "internalType": "uint256",
              "name": "totalPriceUpdates",
              "type": "uint256"
            },
            {
              "internalType": "uint256",
              "name": "totalNegotiations",
              "type": "uint256"
            },
            {
              "internalType": "uint256",
              "name": "registeredAt",
              "type": "uint256"
            },
            {
              "internalType": "uint256",
              "name": "updatedAt",
              "type": "uint256"
            }
          ],
          "internalType": "struct AgentRegistry.Agent",
          "name": "",
          "type": "tuple"
        }
      ],
      "stateMutability": "view",
      "type": "function"
    },
    {
      "inputs": [
        {
          "internalType": "address",
          "name": "contributor",
          "type": "address"
        }
      ],
      "name": "getContributorAgents",
      "outputs": [
        {
          "internalType": "uint256[]",
          "name": "",
          "type": "uint256[]"
        }
      ],
      "stateMutability": "view",
      "type": "function"
    },
    {
      "inputs": [
        {
          "internalType": "address",
          "name": "agentAddress",
          "type": "address"
        }
      ],
      "name": "isAgentActive",
      "outputs": [
        {
          "internalType": "bool",
          "name": "",
          "type": "bool"
        }
      ],
      "stateMutability": "view",
      "type": "function"
    },
    {
      "inputs": [
        {
          "internalType": "address",
          "name": "agentAddress",
          "type": "address"
        }
      ],
      "name": "isAgentFullyAuthorized",
      "outputs": [
        {
          "internalType": "bool",
          "name": "",
          "type": "bool"
        }
      ],
      "stateMutability": "view",
      "type": "function"
    },
    {
      "inputs": [],
      "name": "owner",
      "outputs": [
        {
          "internalType": "address",
          "name": "",
          "type": "address"
        }
      ],
      "stateMutability": "view",
      "type": "function"
    },
    {
      "inputs": [
        {
          "internalType": "uint256",
          "name": "agentId",
          "type": "uint256"
        }
      ],
      "name": "recordNegotiation",
      "outputs": [],
      "stateMutability": "nonpayable",
      "type": "function"
    },
    {
      "inputs": [
        {
          "internalType": "uint256",
          "name": "agentId",
          "type": "uint256"
        }
      ],
      "name": "recordPriceUpdate",
      "outputs": [],
      "stateMutability": "nonpayable",
      "type": "function"
    },
    {
      "inputs": [
        {
          "internalType": "address",
          "name": "agentAddress",
          "type": "address"
        },
        {
          "internalType": "uint256",
          "name": "agenticTokenId",
          "type": "uint256"
        },
        {
          "internalType": "string",
          "name": "metadataURI",
          "type": "string"
        }
      ],
      "name": "registerAgent",
      "outputs": [
        {
          "internalType": "uint256",
          "name": "agentId",
          "type": "uint256"
        }
      ],
      "stateMutability": "nonpayable",
      "type": "function"
    },
    {
      "inputs": [],
      "name": "totalAgents",
      "outputs": [
        {
          "internalType": "uint256",
          "name": "",
          "type": "uint256"
        }
      ],
      "stateMutability": "view",
      "type": "function"
    },
    {
      "inputs": [
        {
          "internalType": "address",
          "name": "newOwner",
          "type": "address"
        }
      ],
      "name": "transferOwnership",
      "outputs": [],
      "stateMutability": "nonpayable",
      "type": "function"
    },
    {
      "inputs": [
        {
          "internalType": "uint256",
          "name": "agentId",
          "type": "uint256"
        },
        {
          "internalType": "enum AgentRegistry.AgentStatus",
          "name": "newStatus",
          "type": "uint8"
        }
      ],
      "name": "updateAgentStatus",
      "outputs": [],
      "stateMutability": "nonpayable",
      "type": "function"
    },
    {
      "inputs": [
        {
          "internalType": "address",
          "name": "newContract",
          "type": "address"
        }
      ],
      "name": "updateAgenticIdContract",
      "outputs": [],
      "stateMutability": "nonpayable",
      "type": "function"
    }
  ],
  "bytecode": "0x6080604052348015600e575f5ffd5b506040516117b33803806117b3833981016040819052602b9160b9565b6001600160a01b03811660845760405162461bcd60e51b815260206004820152601b60248201527f4167656e7452656769737472793a207a65726f20616464726573730000000000604482015260640160405180910390fd5b5f8054336001600160a01b03199182161790915560018055600280549091166001600160a01b039290921691909117905560e4565b5f6020828403121560c8575f5ffd5b81516001600160a01b038116811460dd575f5ffd5b9392505050565b6116c2806100f15f395ff3fe608060405234801561000f575f5ffd5b50600436106100fb575f3560e01c8063bbd5fd4b11610093578063cbe4269011610063578063cbe4269014610232578063cd0e928814610245578063e68dd34214610258578063f2fde38b1461026b575f5ffd5b8063bbd5fd4b146101e4578063c30c84f214610204578063c3a2f16914610217578063c50537121461022a575f5ffd5b8063554c4f4b116100ce578063554c4f4b146101715780635f56da471461019457806379fc1531146101a75780638da5cb5b146101ba575f5ffd5b806309323b15146100ff578063296e6d70146101145780632de5aaf7146101275780635046fc1614610150575b5f5ffd5b61011261010d3660046111da565b61027e565b005b610112610122366004611208565b61037e565b61013a6101353660046111da565b610451565b604051610147919061128c565b60405180910390f35b61016361015e366004611339565b6105da565b604051908152602001610147565b61018461017f366004611208565b610b1f565b6040519015158152602001610147565b6101126101a23660046111da565b610b73565b6101846101b5366004611208565b610c5f565b5f546101cc906001600160a01b031681565b6040516001600160a01b039091168152602001610147565b6101f76101f2366004611208565b610d48565b60405161014791906113be565b610112610212366004611400565b610db1565b6002546101cc906001600160a01b031681565b610163610ed9565b61013a6102403660046111da565b610eed565b610112610253366004611400565b610fc7565b61013a610266366004611208565b6110ad565b610112610279366004611208565b6110ed565b5f546001600160a01b031633146102b05760405162461bcd60e51b81526004016102a790611431565b60405180910390fd5b5f8181526003602052604090206001015481906001600160a01b03166102e85760405162461bcd60e51b81526004016102a790611468565b5f8281526003602052604081206007018054600192906103099084906114b3565b90915550505f8281526003602052604090819020426009909101555182907f7e9af86ada588f8d5da60b10f8b66d60e90db40a7ce73c17284daf1579e3a15790610372906020808252600b908201526a2722a3a7aa24a0aa24a7a760a91b604082015260600190565b60405180910390a25050565b5f546001600160a01b031633146103a75760405162461bcd60e51b81526004016102a790611431565b6001600160a01b0381166103fd5760405162461bcd60e51b815260206004820152601b60248201527f4167656e7452656769737472793a207a65726f2061646472657373000000000060448201526064016102a7565b600280546001600160a01b0319166001600160a01b0383169081179091556040519081527f11d47757fbb02f5015212970a9c6bc0a48eb6af1075b4a90f671f2ba2acc271b9060200160405180910390a150565b61045961118d565b5f8281526003602052604090206001015482906001600160a01b03166104915760405162461bcd60e51b81526004016102a790611468565b5f838152600360208181526040928390208351610140810185528154815260018201546001600160a01b03908116938201939093526002820154909216938201939093529082015460608201526004820180549192916080840191906104f6906114cc565b80601f0160208091040260200160405190810160405280929190818152602001828054610522906114cc565b801561056d5780601f106105445761010080835404028352916020019161056d565b820191905f5260205f20905b81548152906001019060200180831161055057829003601f168201915b5050509183525050600582015460209091019060ff16600281111561059457610594611258565b60028111156105a5576105a5611258565b815260200160068201548152602001600782015481526020016008820154815260200160098201548152505091505b50919050565b5f6001600160a01b03851661063b5760405162461bcd60e51b815260206004820152602160248201527f4167656e7452656769737472793a207a65726f206167656e74206164647265736044820152607360f81b60648201526084016102a7565b816106925760405162461bcd60e51b815260206004820152602160248201527f4167656e7452656769737472793a20656d707479206d657461646174612055526044820152604960f81b60648201526084016102a7565b6001600160a01b0385165f90815260046020526040902054156107075760405162461bcd60e51b815260206004820152602760248201527f4167656e7452656769737472793a206167656e7420616c7265616479207265676044820152661a5cdd195c995960ca1b60648201526084016102a7565b5f84815260066020526040902054156107725760405162461bcd60e51b815260206004820152602760248201527f4167656e7452656769737472793a20746f6b656e20616c7265616479207265676044820152661a5cdd195c995960ca1b60648201526084016102a7565b6002546040516331a9108f60e11b81526004810186905233916001600160a01b031690636352211e90602401602060405180830381865afa1580156107b9573d5f5f3e3d5ffd5b505050506040513d601f19601f820116820180604052508101906107dd91906114fe565b6001600160a01b03161461084e5760405162461bcd60e51b815260206004820152603260248201527f4167656e7452656769737472793a2063616c6c657220646f6573206e6f74206f6044820152711ddb881d1a1a5cc81859d95b9d1a58c8125160721b60648201526084016102a7565b60025460405163609c6d7f60e01b8152600481018690526001600160a01b0387811660248301529091169063609c6d7f90604401602060405180830381865afa15801561089d573d5f5f3e3d5ffd5b505050506040513d601f19601f820116820180604052508101906108c19190611519565b6109335760405162461bcd60e51b815260206004820152603860248201527f4167656e7452656769737472793a206167656e742077616c6c6574206e6f742060448201527f617574686f72697a6564206f6e206167656e746963204944000000000000000060648201526084016102a7565b60018054905f61094283611538565b919050559050604051806101400160405280828152602001866001600160a01b03168152602001336001600160a01b0316815260200185815260200184848080601f0160208091040260200160405190810160405280939291908181526020018383808284375f92018290525093855250506020909201915081525f6020808301829052604080840183905242606080860182905260809586019190915286845260038084529382902086518155928601516001840180546001600160a01b03199081166001600160a01b03938416179091559287015160028501805490941691161790915584015191810191909155908201516004820190610a4590826115b0565b5060a082015160058201805460ff19166001836002811115610a6957610a69611258565b021790555060c082015160068281019190915560e083015160078301556101008301516008830155610120909201516009909101556001600160a01b0386165f818152600460209081526040808320869055338084526005835281842080546001810182559085528385200187905589845294825291829020859055905187815284917f820b1f3cbc66ab6f00de2a4df0ea8d0dcf4dd9ef121c64d663cd4734d73cf952910160405180910390a4949350505050565b6001600160a01b0381165f90815260046020526040812054808203610b4657505f92915050565b5f8181526003602052604081206005015460ff166002811115610b6b57610b6b611258565b149392505050565b5f546001600160a01b03163314610b9c5760405162461bcd60e51b81526004016102a790611431565b5f8181526003602052604090206001015481906001600160a01b0316610bd45760405162461bcd60e51b81526004016102a790611468565b5f828152600360205260408120600601805460019290610bf59084906114b3565b90915550505f8281526003602052604090819020426009909101555182907f7e9af86ada588f8d5da60b10f8b66d60e90db40a7ce73c17284daf1579e3a15790610372906020808252600c908201526b50524943455f55504441544560a01b604082015260600190565b6001600160a01b0381165f90815260046020526040812054808203610c8657505f92915050565b5f8181526003602052604081206005015460ff166002811115610cab57610cab611258565b14610cb857505f92915050565b5f818152600360208190526040918290200154600254915163609c6d7f60e01b8152600481018290526001600160a01b0386811660248301529192919091169063609c6d7f90604401602060405180830381865afa158015610d1c573d5f5f3e3d5ffd5b505050506040513d601f19601f82011682018060405250810190610d409190611519565b949350505050565b6001600160a01b0381165f90815260056020908152604091829020805483518184028101840190945280845260609392830182828015610da557602002820191905f5260205f20905b815481526020019060010190808311610d91575b50505050509050919050565b5f8281526003602052604090206002015482906001600160a01b03163314610e1b5760405162461bcd60e51b815260206004820152601e60248201527f4167656e7452656769737472793a206e6f7420636f6e7472696275746f72000060448201526064016102a7565b5f8381526003602052604090206001015483906001600160a01b0316610e535760405162461bcd60e51b81526004016102a790611468565b5f848152600360205260409020600501805484919060ff19166001836002811115610e8057610e80611258565b02179055505f8481526003602052604090819020426009909101555184907fdc319fb9bf629afc06090185902dd79415c60887c7f35861082fcd4e4ef94df290610ecb90869061166b565b60405180910390a250505050565b5f60018054610ee89190611679565b905090565b610ef561118d565b5f8281526006602052604081205490819003610f625760405162461bcd60e51b815260206004820152602660248201527f4167656e7452656769737472793a206e6f206167656e7420666f722074686973604482015265103a37b5b2b760d11b60648201526084016102a7565b5f818152600360208181526040928390208351610140810185528154815260018201546001600160a01b03908116938201939093526002820154909216938201939093529082015460608201526004820180549192916080840191906104f6906114cc565b5f546001600160a01b03163314610ff05760405162461bcd60e51b81526004016102a790611431565b5f8281526003602052604090206001015482906001600160a01b03166110285760405162461bcd60e51b81526004016102a790611468565b5f838152600360205260409020600501805483919060ff1916600183600281111561105557611055611258565b02179055505f8381526003602052604090819020426009909101555183907fdc319fb9bf629afc06090185902dd79415c60887c7f35861082fcd4e4ef94df2906110a090859061166b565b60405180910390a2505050565b6110b561118d565b6001600160a01b0382165f9081526004602052604081205490819003610f625760405162461bcd60e51b81526004016102a790611468565b5f546001600160a01b031633146111165760405162461bcd60e51b81526004016102a790611431565b6001600160a01b03811661116c5760405162461bcd60e51b815260206004820152601b60248201527f4167656e7452656769737472793a207a65726f2061646472657373000000000060448201526064016102a7565b5f80546001600160a01b0319166001600160a01b0392909216919091179055565b60408051610140810182525f80825260208201819052918101829052606080820183905260808201529060a082019081526020015f81526020015f81526020015f81526020015f81525090565b5f602082840312156111ea575f5ffd5b5035919050565b6001600160a01b0381168114611205575f5ffd5b50565b5f60208284031215611218575f5ffd5b8135611223816111f1565b9392505050565b5f81518084528060208401602086015e5f602082860101526020601f19601f83011685010191505092915050565b634e487b7160e01b5f52602160045260245ffd5b6003811061128857634e487b7160e01b5f52602160045260245ffd5b9052565b60208152815160208201525f60208301516112b260408401826001600160a01b03169052565b5060408301516001600160a01b03811660608401525060608301516080830152608083015161014060a08401526112ed61016084018261122a565b905060a084015161130160c085018261126c565b5060c084015160e084015260e08401516101008401526101008401516101208401526101208401516101408401528091505092915050565b5f5f5f5f6060858703121561134c575f5ffd5b8435611357816111f1565b935060208501359250604085013567ffffffffffffffff811115611379575f5ffd5b8501601f81018713611389575f5ffd5b803567ffffffffffffffff81111561139f575f5ffd5b8760208284010111156113b0575f5ffd5b949793965060200194505050565b602080825282518282018190525f918401906040840190835b818110156113f55783518352602093840193909201916001016113d7565b509095945050505050565b5f5f60408385031215611411575f5ffd5b82359150602083013560038110611426575f5ffd5b809150509250929050565b60208082526018908201527f4167656e7452656769737472793a206e6f74206f776e65720000000000000000604082015260600190565b6020808252601e908201527f4167656e7452656769737472793a206167656e74206e6f7420666f756e640000604082015260600190565b634e487b7160e01b5f52601160045260245ffd5b808201808211156114c6576114c661149f565b92915050565b600181811c908216806114e057607f821691505b6020821081036105d457634e487b7160e01b5f52602260045260245ffd5b5f6020828403121561150e575f5ffd5b8151611223816111f1565b5f60208284031215611529575f5ffd5b81518015158114611223575f5ffd5b5f600182016115495761154961149f565b5060010190565b634e487b7160e01b5f52604160045260245ffd5b601f8211156115ab57805f5260205f20601f840160051c810160208510156115895750805b601f840160051c820191505b818110156115a8575f8155600101611595565b50505b505050565b815167ffffffffffffffff8111156115ca576115ca611550565b6115de816115d884546114cc565b84611564565b6020601f821160018114611610575f83156115f95750848201515b5f19600385901b1c1916600184901b1784556115a8565b5f84815260208120601f198516915b8281101561163f578785015182556020948501946001909201910161161f565b508482101561165c57868401515f19600387901b60f8161c191681555b50505050600190811b01905550565b602081016114c6828461126c565b818103818111156114c6576114c661149f56fea2646970667358221220b7502337efec44d8547562bdbb42a84dc0b7ba5520d8641c1f3445eb35b1f58c64736f6c634300081c0033",
  "linkReferences": {},
  "deployedLinkReferences": {},
  "immutableReferences": {},
  "inputSourceName": "project/contracts/AgentRegistry.sol",
  "buildInfoId": "solc-0_8_28-de2a5f7a8e38e0fb4a64840ca4c156532a35eeba"
}