{
  "_format": "hh3-artifact-1",
  "contractName": "DataMarketplace",
  "sourceName": "contracts/DataMarketplace.sol",
  "abi": [
    {
      "inputs": [
        {
          "internalType": "address",
          "name": "registryAddress",
          "type": "address"
        },
        {
          "internalType": "address",
          "name": "_platformWallet",
          "type": "address"
        },
        {
          "internalType": "uint256",
          "name": "_platformFeeBps",
          "type": "uint256"
        }
      ],
      "stateMutability": "nonpayable",
      "type": "constructor"
    },
    {
      "anonymous": false,
      "inputs": [
        {
          "indexed": false,
          "internalType": "uint256",
          "name": "newFeeBps",
          "type": "uint256"
        }
      ],
      "name": "PlatformFeeUpdated",
      "type": "event"
    },
    {
      "anonymous": false,
      "inputs": [
        {
          "indexed": false,
          "internalType": "address",
          "name": "newWallet",
          "type": "address"
        }
      ],
      "name": "PlatformWalletUpdated",
      "type": "event"
    },
    {
      "anonymous": false,
      "inputs": [
        {
          "indexed": true,
          "internalType": "uint256",
          "name": "purchaseId",
          "type": "uint256"
        },
        {
          "indexed": true,
          "internalType": "uint256",
          "name": "datasetId",
          "type": "uint256"
        },
        {
          "indexed": true,
          "internalType": "address",
          "name": "buyer",
          "type": "address"
        },
        {
          "indexed": false,
          "internalType": "uint256",
          "name": "amount",
          "type": "uint256"
        },
        {
          "indexed": false,
          "internalType": "bool",
          "name": "isSubscription",
          "type": "bool"
        }
      ],
      "name": "PurchaseCreated",
      "type": "event"
    },
    {
      "anonymous": false,
      "inputs": [
        {
          "indexed": true,
          "internalType": "uint256",
          "name": "purchaseId",
          "type": "uint256"
        },
        {
          "indexed": true,
          "internalType": "address",
          "name": "contributor",
          "type": "address"
        },
        {
          "indexed": false,
          "internalType": "uint256",
          "name": "contributorPayout",
          "type": "uint256"
        },
        {
          "indexed": false,
          "internalType": "uint256",
          "name": "platformFee",
          "type": "uint256"
        }
      ],
      "name": "PurchaseSettled",
      "type": "event"
    },
    {
      "anonymous": false,
      "inputs": [
        {
          "indexed": true,
          "internalType": "address",
          "name": "contributor",
          "type": "address"
        },
        {
          "indexed": false,
          "internalType": "uint256",
          "name": "amount",
          "type": "uint256"
        }
      ],
      "name": "Withdrawn",
      "type": "event"
    },
    {
      "inputs": [
        {
          "internalType": "uint256[]",
          "name": "datasetIds",
          "type": "uint256[]"
        }
      ],
      "name": "bulkPurchase",
      "outputs": [],
      "stateMutability": "payable",
      "type": "function"
    },
    {
      "inputs": [
        {
          "internalType": "address",
          "name": "buyer",
          "type": "address"
        }
      ],
      "name": "getBuyerPurchases",
      "outputs": [
        {
          "internalType": "uint256[]",
          "name": "",
          "type": "uint256[]"
        }
      ],
      "stateMutability": "view",
      "type": "function"
    },
    {
      "inputs": [
        {
          "internalType": "address",
          "name": "contributor",
          "type": "address"
        }
      ],
      "name": "getPendingBalance",
      "outputs": [
        {
          "internalType": "uint256",
          "name": "",
          "type": "uint256"
        }
      ],
      "stateMutability": "view",
      "type": "function"
    },
    {
      "inputs": [
        {
          "internalType": "uint256",
          "name": "purchaseId",
          "type": "uint256"
        }
      ],
      "name": "getPurchase",
      "outputs": [
        {
          "components": [
            {
              "internalType": "uint256",
              "name": "id",
              "type": "uint256"
            },
            {
              "internalType": "uint256",
              "name": "datasetId",
              "type": "uint256"
            },
            {
              "internalType": "address",
              "name": "buyer",
              "type": "address"
            },
            {
              "internalType": "address",
              "name": "contributor",
              "type": "address"
            },
            {
              "internalType": "uint256",
              "name": "amount",
              "type": "uint256"
            },
            {
              "internalType": "uint256",
              "name": "platformFee",
              "type": "uint256"
            },
            {
              "internalType": "uint256",
              "name": "contributorPayout",
              "type": "uint256"
            },
            {
              "internalType": "bool",
              "name": "isSubscription",
              "type": "bool"
            },
            {
              "internalType": "bool",
              "name": "settled",
              "type": "bool"
            },
            {
              "internalType": "uint256",
              "name": "purchasedAt",
              "type": "uint256"
            }
          ],
          "internalType": "struct DataMarketplace.Purchase",
          "name": "",
          "type": "tuple"
        }
      ],
      "stateMutability": "view",
      "type": "function"
    },
    {
      "inputs": [
        {
          "internalType": "address",
          "name": "buyer",
          "type": "address"
        },
        {
          "internalType": "uint256",
          "name": "datasetId",
          "type": "uint256"
        }
      ],
      "name": "hasActiveAccess",
      "outputs": [
        {
          "internalType": "bool",
          "name": "",
          "type": "bool"
        }
      ],
      "stateMutability": "view",
      "type": "function"
    },
    {
      "inputs": [
        {
          "internalType": "address",
          "name": "buyer",
          "type": "address"
        },
        {
          "internalType": "uint256",
          "name": "datasetId",
          "type": "uint256"
        }
      ],
      "name": "hasPurchased",
      "outputs": [
        {
          "internalType": "bool",
          "name": "",
          "type": "bool"
        }
      ],
      "stateMutability": "view",
      "type": "function"
    },
    {
      "inputs": [],
      "name": "owner",
      "outputs": [
        {
          "internalType": "address",
          "name": "",
          "type": "address"
        }
      ],
      "stateMutability": "view",
      "type": "function"
    },
    {
      "inputs": [],
      "name": "platformFeeBps",
      "outputs": [
        {
          "internalType": "uint256",
          "name": "",
          "type": "uint256"
        }
      ],
      "stateMutability": "view",
      "type": "function"
    },
    {
      "inputs": [],
      "name": "platformWallet",
      "outputs": [
        {
          "internalType": "address",
          "name": "",
          "type": "address"
        }
      ],
      "stateMutability": "view",
      "type": "function"
    },
    {
      "inputs": [
        {
          "internalType": "uint256",
          "name": "datasetId",
          "type": "uint256"
        }
      ],
      "name": "purchaseAccess",
      "outputs": [],
      "stateMutability": "payable",
      "type": "function"
    },
    {
      "inputs": [
        {
          "internalType": "uint256",
          "name": "datasetId",
          "type": "uint256"
        }
      ],
      "name": "purchaseSubscription",
      "outputs": [],
      "stateMutability": "payable",
      "type": "function"
    },
    {
      "inputs": [],
      "name": "registry",
      "outputs": [
        {
          "internalType": "contract DataRegistry",
          "name": "",
          "type": "address"
        }
      ],
      "stateMutability": "view",
      "type": "function"
    },
    {
      "inputs": [
        {
          "internalType": "address",
          "name": "newOwner",
          "type": "address"
        }
      ],
      "name": "transferOwnership",
      "outputs": [],
      "stateMutability": "nonpayable",
      "type": "function"
    },
    {
      "inputs": [
        {
          "internalType": "uint256",
          "name": "newFeeBps",
          "type": "uint256"
        }
      ],
      "name": "updatePlatformFee",
      "outputs": [],
      "stateMutability": "nonpayable",
      "type": "function"
    },
    {
      "inputs": [
        {
          "internalType": "address",
          "name": "newWallet",
          "type": "address"
        }
      ],
      "name": "updatePlatformWallet",
      "outputs": [],
      "stateMutability": "nonpayable",
      "type": "function"
    },
    {
      "inputs": [],
      "name": "withdraw",
      "outputs": [],
      "stateMutability": "nonpayable",
      "type": "function"
    },
    {
      "stateMutability": "payable",
      "type": "receive"
    }
  ],
  "bytecode": "0x608060405234801561000f575f5ffd5b50604051611d64380380611d6483398101604081905261002e91610191565b6001600160a01b0383166100895760405162461bcd60e51b815260206004820152601a60248201527f4d61726b6574706c6163653a207a65726f20726567697374727900000000000060448201526064015b60405180910390fd5b6001600160a01b0382166100df5760405162461bcd60e51b815260206004820152601860248201527f4d61726b6574706c6163653a207a65726f2077616c6c657400000000000000006044820152606401610080565b6107d08111156101315760405162461bcd60e51b815260206004820152601960248201527f4d61726b6574706c6163653a2066656520746f6f2068696768000000000000006044820152606401610080565b5f80546001600160a01b039485166001600160a01b031991821617909155600180549390941692811692909217835560035560028054909116331790556004556101ca565b80516001600160a01b038116811461018c575f5ffd5b919050565b5f5f5f606084860312156101a3575f5ffd5b6101ac84610176565b92506101ba60208501610176565b9150604084015190509250925092565b611b8d806101d75f395ff3fe6080604052600436106100f2575f3560e01c80638da5cb5b11610087578063b91d0a2f11610057578063b91d0a2f146102af578063f2fde38b146102c2578063fa2af9da146102e1578063fddbcd1b14610300575f5ffd5b80638da5cb5b1461023f5780638edf72f51461025e578063aa0b598814610271578063ada4ef3014610290575f5ffd5b80633ccfd60b116100c25780633ccfd60b1461019557806351d550d2146101a95780637b103999146101dd57806385a3439314610213575f5ffd5b806311923132146100fd5780631380e8ec1461013157806322dcd13e146101465780633742a9f714610169575f5ffd5b366100f957005b5f5ffd5b348015610108575f5ffd5b5061011c610117366004611617565b61031f565b60405190151581526020015b60405180910390f35b61014461013f366004611641565b61034c565b005b348015610151575f5ffd5b5061015b60035481565b604051908152602001610128565b348015610174575f5ffd5b506101886101833660046116b2565b6107a9565b60405161012891906116c9565b3480156101a0575f5ffd5b506101446108a5565b3480156101b4575f5ffd5b5061015b6101c336600461176c565b6001600160a01b03165f9081526007602052604090205490565b3480156101e8575f5ffd5b505f546101fb906001600160a01b031681565b6040516001600160a01b039091168152602001610128565b34801561021e575f5ffd5b5061023261022d36600461176c565b6109de565b6040516101289190611787565b34801561024a575f5ffd5b506002546101fb906001600160a01b031681565b61014461026c3660046116b2565b610a47565b34801561027c575f5ffd5b5061014461028b3660046116b2565b610d4b565b34801561029b575f5ffd5b506101446102aa36600461176c565b610e03565b6101446102bd3660046116b2565b610ecd565b3480156102cd575f5ffd5b506101446102dc36600461176c565b6110ad565b3480156102ec575f5ffd5b506001546101fb906001600160a01b031681565b34801561030b575f5ffd5b5061011c61031a366004611617565b61114b565b6001600160a01b0382165f90815260086020908152604080832084845290915290205460ff165b92915050565b8061039e5760405162461bcd60e51b815260206004820152601960248201527f4d61726b6574706c6163653a20656d707479206261736b65740000000000000060448201526064015b60405180910390fd5b5f808267ffffffffffffffff8111156103b9576103b96117c9565b60405190808252806020026020018201604052801561045a57816020015b610447604080516101e0810182525f80825260208201819052918101829052606080820181905260808201529060a082019081526020015f81526020015f81526020015f81526020015f81526020015f81526020015f81526020015f81526020015f81526020015f151581525090565b8152602001906001900390816103d75790505b5090505f5b838110156106d5576104893386868481811061047d5761047d6117dd565b9050602002013561115d565b156104a65760405162461bcd60e51b8152600401610395906117f1565b5f5b81811015610537578585828181106104c2576104c26117dd565b905060200201358686848181106104db576104db6117dd565b905060200201350361052f5760405162461bcd60e51b815260206004820152601e60248201527f4d61726b6574706c6163653a206475706c6963617465206461746173657400006044820152606401610395565b6001016104a8565b505f80546001600160a01b031663ee00422187878581811061055b5761055b6117dd565b905060200201356040518263ffffffff1660e01b815260040161058091815260200190565b5f60405180830381865afa15801561059a573d5f5f3e3d5ffd5b505050506040513d5f823e601f3d908101601f191682016040526105c19190810190611926565b90505f8160e0015160028111156105da576105da611a72565b146106335760405162461bcd60e51b8152602060048201526024808201527f4d61726b6574706c6163653a20612064617461736574206973206e6f742061636044820152637469766560e01b6064820152608401610395565b60208101516001600160a01b0316330361069b5760405162461bcd60e51b815260206004820152602360248201527f4d61726b6574706c6163653a2063616e6e6f7420627579206f776e20646174616044820152621cd95d60ea1b6064820152608401610395565b808383815181106106ae576106ae6117dd565b6020026020010181905250806101000151846106ca9190611a9a565b93505060010161045f565b508134146107315760405162461bcd60e51b815260206004820152602360248201527f4d61726b6574706c6163653a20696e636f72726563742062756c6b207061796d604482015262195b9d60ea1b6064820152608401610395565b5f5b838110156107a25761079a858583818110610750576107506117dd565b90506020020135838381518110610769576107696117dd565b602002602001015160200151848481518110610787576107876117dd565b602002602001015161010001515f6111fb565b600101610733565b5050505050565b61080b6040518061014001604052805f81526020015f81526020015f6001600160a01b031681526020015f6001600160a01b031681526020015f81526020015f81526020015f81526020015f151581526020015f151581526020015f81525090565b505f908152600560208181526040928390208351610140810185528154815260018201549281019290925260028101546001600160a01b039081169483019490945260038101549093166060820152600483015460808201529082015460a0820152600682015460c0820152600782015460ff808216151560e0840152610100918290041615159082015260089091015461012082015290565b335f90815260076020526040902054806109015760405162461bcd60e51b815260206004820181905260248201527f4d61726b6574706c6163653a206e6f7468696e6720746f2077697468647261776044820152606401610395565b335f818152600760205260408082208290555190919083908381818185875af1925050503d805f811461094f576040519150601f19603f3d011682016040523d82523d5f602084013e610954565b606091505b50509050806109a55760405162461bcd60e51b815260206004820152601e60248201527f4d61726b6574706c6163653a207769746864726177616c206661696c656400006044820152606401610395565b60405182815233907f7084f5476618d8e60b11ef0d7d3f06914655adb8793e28ff7f018d4c76d505d59060200160405180910390a25050565b6001600160a01b0381165f90815260066020908152604091829020805483518184028101840190945280845260609392830182828015610a3b57602002820191905f5260205f20905b815481526020019060010190808311610a27575b50505050509050919050565b5f805460405163ee00422160e01b8152600481018490526001600160a01b039091169063ee004221906024015f60405180830381865afa158015610a8d573d5f5f3e3d5ffd5b505050506040513d5f823e601f3d908101601f19168201604052610ab49190810190611926565b90505f8160e001516002811115610acd57610acd611a72565b14610b1a5760405162461bcd60e51b815260206004820152601f60248201527f4d61726b6574706c6163653a2064617461736574206e6f7420616374697665006044820152606401610395565b5f81610120015111610b7f5760405162461bcd60e51b815260206004820152602860248201527f4d61726b6574706c6163653a20737562736372697074696f6e73206e6f7420616044820152677661696c61626c6560c01b6064820152608401610395565b8061012001513414610be65760405162461bcd60e51b815260206004820152602a60248201527f4d61726b6574706c6163653a20696e636f7272656374207375627363726970746044820152691a5bdb88185b5bdd5b9d60b21b6064820152608401610395565b60208101516001600160a01b03163303610c685760405162461bcd60e51b815260206004820152603860248201527f4d61726b6574706c6163653a20636f6e7472696275746f722063616e6e6f742060448201527f73756273637269626520746f206f776e206461746173657400000000000000006064820152608401610395565b5f54604051632f7315b160e01b8152600481018490523360248201526001600160a01b0390911690632f7315b190604401602060405180830381865afa158015610cb4573d5f5f3e3d5ffd5b505050506040513d601f19601f82011682018060405250810190610cd89190611aad565b15610d365760405162461bcd60e51b815260206004820152602860248201527f4d61726b6574706c6163653a20737562736372697074696f6e20616c72656164604482015267792061637469766560c01b6064820152608401610395565b610d478282602001513460016111fb565b5050565b6002546001600160a01b03163314610d755760405162461bcd60e51b815260040161039590611ac6565b6107d0811115610dc75760405162461bcd60e51b815260206004820152601960248201527f4d61726b6574706c6163653a2066656520746f6f2068696768000000000000006044820152606401610395565b60038190556040518181527f45610d581145924dd7090a5017e5f2b1d6f42213bb2e95707ff86846bbfcb1ca906020015b60405180910390a150565b6002546001600160a01b03163314610e2d5760405162461bcd60e51b815260040161039590611ac6565b6001600160a01b038116610e7f5760405162461bcd60e51b81526020600482015260196024820152784d61726b6574706c6163653a207a65726f206164647265737360381b6044820152606401610395565b600180546001600160a01b0319166001600160a01b0383169081179091556040519081527f73238e3ae0a71b401b31ae67204506d074de41bd5c084082fba9b64b1c7fa28f90602001610df8565b5f805460405163ee00422160e01b8152600481018490526001600160a01b039091169063ee004221906024015f60405180830381865afa158015610f13573d5f5f3e3d5ffd5b505050506040513d5f823e601f3d908101601f19168201604052610f3a9190810190611926565b90505f8160e001516002811115610f5357610f53611a72565b14610fa05760405162461bcd60e51b815260206004820152601f60248201527f4d61726b6574706c6163653a2064617461736574206e6f7420616374697665006044820152606401610395565b80610100015134146110025760405162461bcd60e51b815260206004820152602560248201527f4d61726b6574706c6163653a20696e636f7272656374207061796d656e7420616044820152641b5bdd5b9d60da1b6064820152608401610395565b60208101516001600160a01b031633036110765760405162461bcd60e51b815260206004820152602f60248201527f4d61726b6574706c6163653a20636f6e7472696275746f722063616e6e6f742060448201526e189d5e481bdddb8819185d185cd95d608a1b6064820152608401610395565b611080338361115d565b1561109d5760405162461bcd60e51b8152600401610395906117f1565b610d47828260200151345f6111fb565b6002546001600160a01b031633146110d75760405162461bcd60e51b815260040161039590611ac6565b6001600160a01b0381166111295760405162461bcd60e51b81526020600482015260196024820152784d61726b6574706c6163653a207a65726f206164647265737360381b6044820152606401610395565b600280546001600160a01b0319166001600160a01b0392909216919091179055565b5f611156838361115d565b9392505050565b6001600160a01b0382165f90815260086020908152604080832084845290915281205460ff168061115657505f54604051632f7315b160e01b8152600481018490526001600160a01b03858116602483015290911690632f7315b190604401602060405180830381865afa1580156111d7573d5f5f3e3d5ffd5b505050506040513d601f19601f820116820180604052508101906111569190611aad565b5f6127106003548461120d9190611af6565b6112179190611b0d565b90505f6112248285611b2c565b600480549192505f91908261123883611b3f565b919050559050604051806101400160405280828152602001888152602001336001600160a01b03168152602001876001600160a01b0316815260200186815260200184815260200183815260200185151581526020016001151581526020014281525060055f8381526020019081526020015f205f820151815f0155602082015181600101556040820151816002015f6101000a8154816001600160a01b0302191690836001600160a01b031602179055506060820151816003015f6101000a8154816001600160a01b0302191690836001600160a01b031602179055506080820151816004015560a0820151816005015560c0820151816006015560e0820151816007015f6101000a81548160ff0219169083151502179055506101008201518160070160016101000a81548160ff021916908315150217905550610120820151816008015590505060065f336001600160a01b03166001600160a01b031681526020019081526020015f2081908060018154018082558091505060019003905f5260205f20015f9091909190915055600160085f336001600160a01b03166001600160a01b031681526020019081526020015f205f8981526020019081526020015f205f6101000a81548160ff0219169083151502179055508160075f886001600160a01b03166001600160a01b031681526020019081526020015f205f8282546114459190611a9a565b90915550508215611504576001546040515f916001600160a01b03169085908381818185875af1925050503d805f811461149a576040519150601f19603f3d011682016040523d82523d5f602084013e61149f565b606091505b50509050806115025760405162461bcd60e51b815260206004820152602960248201527f4d61726b6574706c6163653a20706c6174666f726d20666565207472616e7366604482015268195c8819985a5b195960ba1b6064820152608401610395565b505b5f54604051630d9a5fa360e21b8152600481018990523360248201526044810187905285151560648201526001600160a01b03909116906336697e8c906084015f604051808303815f87803b15801561155b575f5ffd5b505af115801561156d573d5f5f3e3d5ffd5b50506040805188815287151560208201523393508a925084917f56822ef4fcd8d4670509486550fd695811bac6b63ad9d490c4b6952fbd1c7ce5910160405180910390a460408051838152602081018590526001600160a01b0388169183917f93087b5deb2e1256912f2e1f12e16d4611a756e793b182e938bb3f2a499e8c07910160405180910390a350505050505050565b6001600160a01b0381168114611614575f5ffd5b50565b5f5f60408385031215611628575f5ffd5b823561163381611600565b946020939093013593505050565b5f5f60208385031215611652575f5ffd5b823567ffffffffffffffff811115611668575f5ffd5b8301601f81018513611678575f5ffd5b803567ffffffffffffffff81111561168e575f5ffd5b8560208260051b84010111156116a2575f5ffd5b6020919091019590945092505050565b5f602082840312156116c2575f5ffd5b5035919050565b5f61014082019050825182526020830151602083015260408301516116f960408401826001600160a01b03169052565b50606083015161171460608401826001600160a01b03169052565b506080830151608083015260a083015160a083015260c083015160c083015260e083015161174660e084018215159052565b5061010083015161175c61010084018215159052565b5061012092830151919092015290565b5f6020828403121561177c575f5ffd5b813561115681611600565b602080825282518282018190525f918401906040840190835b818110156117be5783518352602093840193909201916001016117a0565b509095945050505050565b634e487b7160e01b5f52604160045260245ffd5b634e487b7160e01b5f52603260045260245ffd5b60208082526025908201527f4d61726b6574706c6163653a2061636365737320616c726561647920707572636040820152641a185cd95960da1b606082015260800190565b6040516101e0810167ffffffffffffffff8111828210171561185a5761185a6117c9565b60405290565b805161186b81611600565b919050565b5f82601f83011261187f575f5ffd5b815167ffffffffffffffff811115611899576118996117c9565b604051601f8201601f19908116603f0116810167ffffffffffffffff811182821017156118c8576118c86117c9565b6040528181528382016020018510156118df575f5ffd5b8160208501602083015e5f918101602001919091529392505050565b80516008811061186b575f5ffd5b80516003811061186b575f5ffd5b8051801515811461186b575f5ffd5b5f60208284031215611936575f5ffd5b815167ffffffffffffffff81111561194c575f5ffd5b82016101e0818503121561195e575f5ffd5b611966611836565b8151815261197660208301611860565b602082015261198760408301611860565b6040820152606082015167ffffffffffffffff8111156119a5575f5ffd5b6119b186828501611870565b606083015250608082015167ffffffffffffffff8111156119d0575f5ffd5b6119dc86828501611870565b6080830152506119ee60a083016118fb565b60a08201526119ff60c08301611909565b60c0820152611a1060e08301611909565b60e0820152610100828101519082015261012080830151908201526101408083015190820152610160808301519082015261018080830151908201526101a08083015190820152611a646101c08301611917565b6101c0820152949350505050565b634e487b7160e01b5f52602160045260245ffd5b634e487b7160e01b5f52601160045260245ffd5b8082018082111561034657610346611a86565b5f60208284031215611abd575f5ffd5b61115682611917565b60208082526016908201527526b0b935b2ba383630b1b29d103737ba1037bbb732b960511b604082015260600190565b808202811582820484141761034657610346611a86565b5f82611b2757634e487b7160e01b5f52601260045260245ffd5b500490565b8181038181111561034657610346611a86565b5f60018201611b5057611b50611a86565b506001019056fea264697066735822122000b8ee32db55cbab4d250e0307b9e5ff8beb7280bf771096e330b9c2dc31e00164736f6c634300081c0033",
  "linkReferences": {},
  "deployedLinkReferences": {},
  "immutableReferences": {},
  "inputSourceName": "project/contracts/DataMarketplace.sol",
  "buildInfoId": "solc-0_8_28-74378f1d642f2ec9e00b563e47ee66278052327a"
}