{
  "_format": "hh3-artifact-1",
  "contractName": "DataRegistry",
  "sourceName": "contracts/DataRegistry.sol",
  "abi": [
    {
      "inputs": [],
      "stateMutability": "nonpayable",
      "type": "constructor"
    },
    {
      "anonymous": false,
      "inputs": [
        {
          "indexed": true,
          "internalType": "uint256",
          "name": "datasetId",
          "type": "uint256"
        },
        {
          "indexed": true,
          "internalType": "address",
          "name": "agent",
          "type": "address"
        }
      ],
      "name": "AgentAssigned",
      "type": "event"
    },
    {
      "anonymous": false,
      "inputs": [
        {
          "indexed": true,
          "internalType": "uint256",
          "name": "datasetId",
          "type": "uint256"
        },
        {
          "indexed": false,
          "internalType": "uint256",
          "name": "newPrice",
          "type": "uint256"
        },
        {
          "indexed": true,
          "internalType": "address",
          "name": "agent",
          "type": "address"
        }
      ],
      "name": "AgentPriceUpdated",
      "type": "event"
    },
    {
      "anonymous": false,
      "inputs": [
        {
          "indexed": true,
          "internalType": "uint256",
          "name": "datasetId",
          "type": "uint256"
        },
        {
          "indexed": true,
          "internalType": "address",
          "name": "contributor",
          "type": "address"
        },
        {
          "indexed": false,
          "internalType": "enum DataRegistry.DataType",
          "name": "dataType",
          "type": "uint8"
        },
        {
          "indexed": false,
          "internalType": "string",
          "name": "storageRootHash",
          "type": "string"
        },
        {
          "indexed": false,
          "internalType": "uint256",
          "name": "pricePerAccess",
          "type": "uint256"
        }
      ],
      "name": "DatasetRegistered",
      "type": "event"
    },
    {
      "anonymous": false,
      "inputs": [
        {
          "indexed": true,
          "internalType": "uint256",
          "name": "datasetId",
          "type": "uint256"
        },
        {
          "indexed": false,
          "internalType": "uint256",
          "name": "newPrice",
          "type": "uint256"
        },
        {
          "indexed": false,
          "internalType": "enum DataRegistry.DatasetStatus",
          "name": "newStatus",
          "type": "uint8"
        }
      ],
      "name": "DatasetUpdated",
      "type": "event"
    },
    {
      "anonymous": false,
      "inputs": [
        {
          "indexed": true,
          "internalType": "uint256",
          "name": "datasetId",
          "type": "uint256"
        },
        {
          "indexed": true,
          "internalType": "address",
          "name": "buyer",
          "type": "address"
        },
        {
          "indexed": false,
          "internalType": "uint256",
          "name": "amount",
          "type": "uint256"
        }
      ],
      "name": "SaleRecorded",
      "type": "event"
    },
    {
      "anonymous": false,
      "inputs": [
        {
          "indexed": true,
          "internalType": "uint256",
          "name": "datasetId",
          "type": "uint256"
        },
        {
          "indexed": true,
          "internalType": "address",
          "name": "buyer",
          "type": "address"
        },
        {
          "indexed": false,
          "internalType": "uint256",
          "name": "expiresAt",
          "type": "uint256"
        }
      ],
      "name": "SubscriptionRecorded",
      "type": "event"
    },
    {
      "inputs": [
        {
          "internalType": "uint256",
          "name": "datasetId",
          "type": "uint256"
        },
        {
          "internalType": "uint256",
          "name": "newPrice",
          "type": "uint256"
        }
      ],
      "name": "agentUpdatePrice",
      "outputs": [],
      "stateMutability": "nonpayable",
      "type": "function"
    },
    {
      "inputs": [
        {
          "internalType": "uint256",
          "name": "datasetId",
          "type": "uint256"
        },
        {
          "internalType": "address",
          "name": "agentAddress",
          "type": "address"
        },
        {
          "internalType": "bool",
          "name": "agentPricingEnabled",
          "type": "bool"
        }
      ],
      "name": "assignAgent",
      "outputs": [],
      "stateMutability": "nonpayable",
      "type": "function"
    },
    {
      "inputs": [
        {
          "internalType": "address",
          "name": "contributor",
          "type": "address"
        }
      ],
      "name": "getContributorDatasets",
      "outputs": [
        {
          "internalType": "uint256[]",
          "name": "",
          "type": "uint256[]"
        }
      ],
      "stateMutability": "view",
      "type": "function"
    },
    {
      "inputs": [
        {
          "internalType": "uint256",
          "name": "datasetId",
          "type": "uint256"
        }
      ],
      "name": "getDataset",
      "outputs": [
        {
          "components": [
            {
              "internalType": "uint256",
              "name": "id",
              "type": "uint256"
            },
            {
              "internalType": "address",
              "name": "contributor",
              "type": "address"
            },
            {
              "internalType": "address",
              "name": "agentAddress",
              "type": "address"
            },
            {
              "internalType": "string",
              "name": "storageRootHash",
              "type": "string"
            },
            {
              "internalType": "string",
              "name": "metadataURI",
              "type": "string"
            },
            {
              "internalType": "enum DataRegistry.DataType",
              "name": "dataType",
              "type": "uint8"
            },
            {
              "internalType": "enum DataRegistry.UsagePermission",
              "name": "permission",
              "type": "uint8"
            },
            {
              "internalType": "enum DataRegistry.DatasetStatus",
              "name": "status",
              "type": "uint8"
            },
            {
              "internalType": "uint256",
              "name": "pricePerAccess",
              "type": "uint256"
            },
            {
              "internalType": "uint256",
              "name": "subscriptionPrice",
              "type": "uint256"
            },
            {
              "internalType": "uint256",
              "name": "totalSales",
              "type": "uint256"
            },
            {
              "internalType": "uint256",
              "name": "totalRevenue",
              "type": "uint256"
            },
            {
              "internalType": "uint256",
              "name": "registeredAt",
              "type": "uint256"
            },
            {
              "internalType": "uint256",
              "name": "updatedAt",
              "type": "uint256"
            },
            {
              "internalType": "bool",
              "name": "agentPricingEnabled",
              "type": "bool"
            }
          ],
          "internalType": "struct DataRegistry.Dataset",
          "name": "",
          "type": "tuple"
        }
      ],
      "stateMutability": "view",
      "type": "function"
    },
    {
      "inputs": [
        {
          "internalType": "string",
          "name": "rootHash",
          "type": "string"
        }
      ],
      "name": "getDatasetByHash",
      "outputs": [
        {
          "internalType": "uint256",
          "name": "",
          "type": "uint256"
        }
      ],
      "stateMutability": "view",
      "type": "function"
    },
    {
      "inputs": [
        {
          "internalType": "uint256",
          "name": "datasetId",
          "type": "uint256"
        },
        {
          "internalType": "address",
          "name": "buyer",
          "type": "address"
        }
      ],
      "name": "getSubscriptionExpiry",
      "outputs": [
        {
          "internalType": "uint256",
          "name": "",
          "type": "uint256"
        }
      ],
      "stateMutability": "view",
      "type": "function"
    },
    {
      "inputs": [
        {
          "internalType": "uint256",
          "name": "datasetId",
          "type": "uint256"
        },
        {
          "internalType": "address",
          "name": "buyer",
          "type": "address"
        }
      ],
      "name": "isSubscriptionActive",
      "outputs": [
        {
          "internalType": "bool",
          "name": "",
          "type": "bool"
        }
      ],
      "stateMutability": "view",
      "type": "function"
    },
    {
      "inputs": [],
      "name": "owner",
      "outputs": [
        {
          "internalType": "address",
          "name": "",
          "type": "address"
        }
      ],
      "stateMutability": "view",
      "type": "function"
    },
    {
      "inputs": [
        {
          "internalType": "uint256",
          "name": "datasetId",
          "type": "uint256"
        },
        {
          "internalType": "address",
          "name": "buyer",
          "type": "address"
        },
        {
          "internalType": "uint256",
          "name": "amount",
          "type": "uint256"
        },
        {
          "internalType": "bool",
          "name": "isSubscription",
          "type": "bool"
        }
      ],
      "name": "recordSale",
      "outputs": [],
      "stateMutability": "nonpayable",
      "type": "function"
    },
    {
      "inputs": [
        {
          "internalType": "string",
          "name": "storageRootHash",
          "type": "string"
        },
        {
          "internalType": "string",
          "name": "metadataURI",
          "type": "string"
        },
        {
          "internalType": "enum DataRegistry.DataType",
          "name": "dataType",
          "type": "uint8"
        },
        {
          "internalType": "enum DataRegistry.UsagePermission",
          "name": "permission",
          "type": "uint8"
        },
        {
          "internalType": "uint256",
          "name": "pricePerAccess",
          "type": "uint256"
        },
        {
          "internalType": "uint256",
          "name": "subscriptionPrice",
          "type": "uint256"
        },
        {
          "internalType": "address",
          "name": "agentAddress",
          "type": "address"
        },
        {
          "internalType": "bool",
          "name": "agentPricingEnabled",
          "type": "bool"
        }
      ],
      "name": "registerDataset",
      "outputs": [
        {
          "internalType": "uint256",
          "name": "datasetId",
          "type": "uint256"
        }
      ],
      "stateMutability": "nonpayable",
      "type": "function"
    },
    {
      "inputs": [],
      "name": "totalDatasets",
      "outputs": [
        {
          "internalType": "uint256",
          "name": "",
          "type": "uint256"
        }
      ],
      "stateMutability": "view",
      "type": "function"
    },
    {
      "inputs": [
        {
          "internalType": "address",
          "name": "newOwner",
          "type": "address"
        }
      ],
      "name": "transferOwnership",
      "outputs": [],
      "stateMutability": "nonpayable",
      "type": "function"
    },
    {
      "inputs": [
        {
          "internalType": "uint256",
          "name": "datasetId",
          "type": "uint256"
        },
        {
          "internalType": "uint256",
          "name": "newPrice",
          "type": "uint256"
        },
        {
          "internalType": "uint256",
          "name": "newSubscriptionPrice",
          "type": "uint256"
        },
        {
          "internalType": "enum DataRegistry.DatasetStatus",
          "name": "newStatus",
          "type": "uint8"
        }
      ],
      "name": "updateDataset",
      "outputs": [],
      "stateMutability": "nonpayable",
      "type": "function"
    }
  ],
  "bytecode": "0x6080604052348015600e575f5ffd5b505f80546001600160a01b03191633179055600180556117df806100315f395ff3fe608060405234801561000f575f5ffd5b50600436106100cb575f3560e01c8063770f686011610088578063cfaeff2b11610063578063cfaeff2b146101c3578063ddd59552146101f8578063ee00422114610200578063f2fde38b14610220575f5ffd5b8063770f6860146101665780638da5cb5b14610186578063a84d1b79146101b0575f5ffd5b80632f7315b1146100cf57806336697e8c146100f757806347d90b431461010c57806349baa1801461011f5780636bdc45af14610132578063739e4af114610153575b5f5ffd5b6100e26100dd3660046110b5565b610233565b60405190151581526020015b60405180910390f35b61010a6101053660046110ee565b61025e565b005b61010a61011a36600461114b565b6103fa565b61010a61012d366004611189565b610550565b610145610140366004611207565b61066a565b6040519081526020016100ee565b61010a610161366004611246565b610694565b610179610174366004611266565b610800565b6040516100ee9190611286565b5f54610198906001600160a01b031681565b6040516001600160a01b0390911681526020016100ee565b6101456101be3660046112c8565b610869565b6101456101d13660046110b5565b5f9182526005602090815260408084206001600160a01b0393909316845291905290205490565b610145610cb0565b61021361020e36600461138f565b610cc4565b6040516100ee9190611415565b61010a61022e366004611266565b610fd0565b5f8281526005602090815260408083206001600160a01b038516845290915290205442105b92915050565b5f546001600160a01b031633146102b65760405162461bcd60e51b81526020600482015260176024820152762230ba30a932b3b4b9ba393c9d103737ba1037bbb732b960491b60448201526064015b60405180910390fd5b5f8481526002602052604090206001015484906001600160a01b03166102ee5760405162461bcd60e51b81526004016102ad9061152b565b5f8581526002602052604081206008810180549192600192610311908490611576565b9250508190555083816009015f82825461032b9190611576565b909155505042600b82015582156103ad575f61034a4262278d00611576565b5f8881526005602090815260408083206001600160a01b038b168085529083529281902084905551838152929350909189917f354add9d9bb9ac852bddd4de3a6a2a6a09d826cd496af2702371ef3997fb717c910160405180910390a3506103f2565b846001600160a01b0316867f55b41629334dae13fc979629cf9d04495d39f66f4ff450b5e01a0f66bd1ca45c866040516103e991815260200190565b60405180910390a35b505050505050565b5f8481526002602052604090206001015484906001600160a01b031633146104645760405162461bcd60e51b815260206004820152601d60248201527f4461746152656769737472793a206e6f7420636f6e7472696275746f7200000060448201526064016102ad565b5f8581526002602052604090206001015485906001600160a01b031661049c5760405162461bcd60e51b81526004016102ad9061152b565b5f85116104bb5760405162461bcd60e51b81526004016102ad90611589565b5f86815260026020819052604090912060068101879055600781018690556005810180549192869262ff000019169062010000908490811115610500576105006113d4565b021790555042600b82015560405187907fbef09f2b8f6bde417643edbab461dbbdd951101b35d6bcf466de942c99ae88fd9061053f90899088906115c0565b60405180910390a250505050505050565b5f8381526002602052604090206001015483906001600160a01b031633146105ba5760405162461bcd60e51b815260206004820152601d60248201527f4461746152656769737472793a206e6f7420636f6e7472696275746f7200000060448201526064016102ad565b5f8481526002602052604090206001015484906001600160a01b03166105f25760405162461bcd60e51b81526004016102ad9061152b565b5f85815260026020819052604080832091820180546001600160a01b0319166001600160a01b038916908117909155600c8301805460ff191688151517905542600b84015590519192909188917fd25897082f24f97a1661981e842bc7916a593bc2a08c94b0a591d59fd2f1c91591a3505050505050565b5f6004838360405161067d9291906115dd565b908152602001604051809103902054905092915050565b5f8281526002602052604090206001015482906001600160a01b03166106cc5760405162461bcd60e51b81526004016102ad9061152b565b5f838152600260208190526040909120908101546001600160a01b031633146107375760405162461bcd60e51b815260206004820152601b60248201527f4461746152656769737472793a206e6f7420746865206167656e74000000000060448201526064016102ad565b600c81015460ff166107975760405162461bcd60e51b8152602060048201526024808201527f4461746152656769737472793a206167656e742070726963696e672064697361604482015263189b195960e21b60648201526084016102ad565b5f83116107b65760405162461bcd60e51b81526004016102ad90611589565b6006810183905542600b820155604051838152339085907f8e9f5411f6f31c9316ed414b20f7ee5d879bbdc6a4db3e641354cff914feedf19060200160405180910390a350505050565b6001600160a01b0381165f9081526003602090815260409182902080548351818402810184019094528084526060939283018282801561085d57602002820191905f5260205f20905b815481526020019060010190808311610849575b50505050509050919050565b5f896108b75760405162461bcd60e51b815260206004820152601d60248201527f4461746152656769737472793a20656d70747920726f6f74206861736800000060448201526064016102ad565b876109045760405162461bcd60e51b815260206004820181905260248201527f4461746152656769737472793a20656d707479206d657461646174612055524960448201526064016102ad565b5f85116109235760405162461bcd60e51b81526004016102ad90611589565b60048b8b6040516109359291906115dd565b9081526020016040518091039020545f146109a35760405162461bcd60e51b815260206004820152602860248201527f4461746152656769737472793a206461746173657420616c726561647920726560448201526719da5cdd195c995960c21b60648201526084016102ad565b60018054905f6109b2836115ec565b919050559050604051806101e00160405280828152602001336001600160a01b03168152602001846001600160a01b031681526020018c8c8080601f0160208091040260200160405190810160405280939291908181526020018383808284375f92019190915250505090825250604080516020601f8d018190048102820181019092528b815291810191908c908c90819084018382808284375f92019190915250505090825250602001886007811115610a6f57610a6f6113d4565b8152602001876002811115610a8657610a866113d4565b81526020015f8152602080820188905260408083018890525f6060808501829052608085018290524260a0860181905260c086015287151560e09095019490945285815260028084529082902085518155928501516001840180546001600160a01b03199081166001600160a01b03938416179091559286015191840180549093169116179055908201516003820190610b209082611696565b5060808201516004820190610b359082611696565b5060a082015160058201805460ff19166001836007811115610b5957610b596113d4565b021790555060c082015160058201805461ff001916610100836002811115610b8357610b836113d4565b021790555060e082015160058201805462ff0000191662010000836002811115610baf57610baf6113d4565b02179055506101008201516006820155610120820151600782015561014082015160088201556101608201516009820155610180820151600a8201556101a0820151600b8201556101c090910151600c909101805460ff1916911515919091179055335f90815260036020908152604080832080546001810182559084529190922001829055518190600490610c48908e908e906115dd565b908152602001604051809103902081905550336001600160a01b0316817ff7b79c10892a03b590dd2ee1ac6e7c3736c0ce212f3efbee4ff16e0b8326f01c898e8e8a604051610c9a9493929190611751565b60405180910390a39a9950505050505050505050565b5f60018054610cbf9190611796565b905090565b610d34604080516101e0810182525f80825260208201819052918101829052606080820181905260808201529060a082019081526020015f81526020015f81526020015f81526020015f81526020015f81526020015f81526020015f81526020015f81526020015f151581525090565b5f8281526002602052604090206001015482906001600160a01b0316610d6c5760405162461bcd60e51b81526004016102ad9061152b565b5f8381526002602081815260409283902083516101e0810185528154815260018201546001600160a01b03908116938201939093529281015490911692820192909252600382018054919291606084019190610dc790611618565b80601f0160208091040260200160405190810160405280929190818152602001828054610df390611618565b8015610e3e5780601f10610e1557610100808354040283529160200191610e3e565b820191905f5260205f20905b815481529060010190602001808311610e2157829003601f168201915b50505050508152602001600482018054610e5790611618565b80601f0160208091040260200160405190810160405280929190818152602001828054610e8390611618565b8015610ece5780601f10610ea557610100808354040283529160200191610ece565b820191905f5260205f20905b815481529060010190602001808311610eb157829003601f168201915b5050509183525050600582015460209091019060ff166007811115610ef557610ef56113d4565b6007811115610f0657610f066113d4565b81526020016005820160019054906101000a900460ff166002811115610f2e57610f2e6113d4565b6002811115610f3f57610f3f6113d4565b81526020016005820160029054906101000a900460ff166002811115610f6757610f676113d4565b6002811115610f7857610f786113d4565b815260068201546020820152600782015460408201526008820154606082015260098201546080820152600a82015460a0820152600b82015460c0820152600c9091015460ff16151560e09091015291505b50919050565b5f546001600160a01b031633146110235760405162461bcd60e51b81526020600482015260176024820152762230ba30a932b3b4b9ba393c9d103737ba1037bbb732b960491b60448201526064016102ad565b6001600160a01b0381166110795760405162461bcd60e51b815260206004820152601a60248201527f4461746152656769737472793a207a65726f206164647265737300000000000060448201526064016102ad565b5f80546001600160a01b0319166001600160a01b0392909216919091179055565b80356001600160a01b03811681146110b0575f5ffd5b919050565b5f5f604083850312156110c6575f5ffd5b823591506110d66020840161109a565b90509250929050565b803580151581146110b0575f5ffd5b5f5f5f5f60808587031215611101575f5ffd5b843593506111116020860161109a565b925060408501359150611126606086016110df565b905092959194509250565b6003811061113d575f5ffd5b50565b80356110b081611131565b5f5f5f5f6080858703121561115e575f5ffd5b843593506020850135925060408501359150606085013561117e81611131565b939692955090935050565b5f5f5f6060848603121561119b575f5ffd5b833592506111ab6020850161109a565b91506111b9604085016110df565b90509250925092565b5f5f83601f8401126111d2575f5ffd5b50813567ffffffffffffffff8111156111e9575f5ffd5b602083019150836020828501011115611200575f5ffd5b9250929050565b5f5f60208385031215611218575f5ffd5b823567ffffffffffffffff81111561122e575f5ffd5b61123a858286016111c2565b90969095509350505050565b5f5f60408385031215611257575f5ffd5b50508035926020909101359150565b5f60208284031215611276575f5ffd5b61127f8261109a565b9392505050565b602080825282518282018190525f918401906040840190835b818110156112bd57835183526020938401939092019160010161129f565b509095945050505050565b5f5f5f5f5f5f5f5f5f5f6101008b8d0312156112e2575f5ffd5b8a3567ffffffffffffffff8111156112f8575f5ffd5b6113048d828e016111c2565b909b5099505060208b013567ffffffffffffffff811115611323575f5ffd5b61132f8d828e016111c2565b90995097505060408b013560088110611346575f5ffd5b955061135460608c01611140565b945060808b0135935060a08b0135925061137060c08c0161109a565b915061137e60e08c016110df565b90509295989b9194979a5092959850565b5f6020828403121561139f575f5ffd5b5035919050565b5f81518084528060208401602086015e5f602082860101526020601f19601f83011685010191505092915050565b634e487b7160e01b5f52602160045260245ffd5b600881106113f8576113f86113d4565b9052565b6003811061113d5761113d6113d4565b6113f8816113fc565b60208152815160208201525f602083015161143b60408401826001600160a01b03169052565b5060408301516001600160a01b03811660608401525060608301516101e0608084015261146c6102008401826113a6565b90506080840151601f198483030160a085015261148982826113a6565b91505060a084015161149e60c08501826113e8565b5060c08401516114b160e085018261140c565b5060e08401516114c561010085018261140c565b506101008401516101208401526101208401516101408401526101408401516101608401526101608401516101808401526101808401516101a08401526101a08401516101c08401526101c08401516115236101e085018215159052565b509392505050565b6020808252601f908201527f4461746152656769737472793a2064617461736574206e6f7420666f756e6400604082015260600190565b634e487b7160e01b5f52601160045260245ffd5b8082018082111561025857610258611562565b6020808252601f908201527f4461746152656769737472793a207072696365206d757374206265203e203000604082015260600190565b828152604081016115d0836113fc565b8260208301529392505050565b818382375f9101908152919050565b5f600182016115fd576115fd611562565b5060010190565b634e487b7160e01b5f52604160045260245ffd5b600181811c9082168061162c57607f821691505b602082108103610fca57634e487b7160e01b5f52602260045260245ffd5b601f82111561169157805f5260205f20601f840160051c8101602085101561166f5750805b601f840160051c820191505b8181101561168e575f815560010161167b565b50505b505050565b815167ffffffffffffffff8111156116b0576116b0611604565b6116c4816116be8454611618565b8461164a565b6020601f8211600181146116f6575f83156116df5750848201515b5f19600385901b1c1916600184901b17845561168e565b5f84815260208120601f198516915b828110156117255787850151825560209485019460019092019101611705565b508482101561174257868401515f19600387901b60f8161c191681555b50505050600190811b01905550565b61175b81866113e8565b60606020820152826060820152828460808301375f608084830101525f6080601f19601f860116830101905082604083015295945050505050565b818103818111156102585761025861156256fea2646970667358221220c4ef879462ee6110700c5716b830ad1044d31f34268b98751def8ae7cd36358464736f6c634300081c0033",
  "linkReferences": {},
  "deployedLinkReferences": {},
  "immutableReferences": {},
  "inputSourceName": "project/contracts/DataRegistry.sol",
  "buildInfoId": "solc-0_8_28-6b49fff39175ad683f3e224d7a894b6c651c4264"
}