{
  "_format": "hh3-artifact-1",
  "contractName": "DataMarketplace",
  "sourceName": "contracts/DataMarketplace.sol",
  "abi": [
    {
      "inputs": [
        {
          "internalType": "address",
          "name": "registryAddress",
          "type": "address"
        },
        {
          "internalType": "address",
          "name": "_platformWallet",
          "type": "address"
        },
        {
          "internalType": "uint256",
          "name": "_platformFeeBps",
          "type": "uint256"
        }
      ],
      "stateMutability": "nonpayable",
      "type": "constructor"
    },
    {
      "anonymous": false,
      "inputs": [
        {
          "indexed": false,
          "internalType": "uint256",
          "name": "newFeeBps",
          "type": "uint256"
        }
      ],
      "name": "PlatformFeeUpdated",
      "type": "event"
    },
    {
      "anonymous": false,
      "inputs": [
        {
          "indexed": false,
          "internalType": "address",
          "name": "newWallet",
          "type": "address"
        }
      ],
      "name": "PlatformWalletUpdated",
      "type": "event"
    },
    {
      "anonymous": false,
      "inputs": [
        {
          "indexed": true,
          "internalType": "uint256",
          "name": "purchaseId",
          "type": "uint256"
        },
        {
          "indexed": true,
          "internalType": "uint256",
          "name": "datasetId",
          "type": "uint256"
        },
        {
          "indexed": true,
          "internalType": "address",
          "name": "buyer",
          "type": "address"
        },
        {
          "indexed": false,
          "internalType": "uint256",
          "name": "amount",
          "type": "uint256"
        },
        {
          "indexed": false,
          "internalType": "bool",
          "name": "isSubscription",
          "type": "bool"
        }
      ],
      "name": "PurchaseCreated",
      "type": "event"
    },
    {
      "anonymous": false,
      "inputs": [
        {
          "indexed": true,
          "internalType": "uint256",
          "name": "purchaseId",
          "type": "uint256"
        },
        {
          "indexed": true,
          "internalType": "address",
          "name": "contributor",
          "type": "address"
        },
        {
          "indexed": false,
          "internalType": "uint256",
          "name": "contributorPayout",
          "type": "uint256"
        },
        {
          "indexed": false,
          "internalType": "uint256",
          "name": "platformFee",
          "type": "uint256"
        }
      ],
      "name": "PurchaseSettled",
      "type": "event"
    },
    {
      "anonymous": false,
      "inputs": [
        {
          "indexed": true,
          "internalType": "address",
          "name": "contributor",
          "type": "address"
        },
        {
          "indexed": false,
          "internalType": "uint256",
          "name": "amount",
          "type": "uint256"
        }
      ],
      "name": "Withdrawn",
      "type": "event"
    },
    {
      "inputs": [
        {
          "internalType": "uint256[]",
          "name": "datasetIds",
          "type": "uint256[]"
        }
      ],
      "name": "bulkPurchase",
      "outputs": [],
      "stateMutability": "payable",
      "type": "function"
    },
    {
      "inputs": [
        {
          "internalType": "address",
          "name": "buyer",
          "type": "address"
        }
      ],
      "name": "getBuyerPurchases",
      "outputs": [
        {
          "internalType": "uint256[]",
          "name": "",
          "type": "uint256[]"
        }
      ],
      "stateMutability": "view",
      "type": "function"
    },
    {
      "inputs": [
        {
          "internalType": "address",
          "name": "contributor",
          "type": "address"
        }
      ],
      "name": "getPendingBalance",
      "outputs": [
        {
          "internalType": "uint256",
          "name": "",
          "type": "uint256"
        }
      ],
      "stateMutability": "view",
      "type": "function"
    },
    {
      "inputs": [
        {
          "internalType": "uint256",
          "name": "purchaseId",
          "type": "uint256"
        }
      ],
      "name": "getPurchase",
      "outputs": [
        {
          "components": [
            {
              "internalType": "uint256",
              "name": "id",
              "type": "uint256"
            },
            {
              "internalType": "uint256",
              "name": "datasetId",
              "type": "uint256"
            },
            {
              "internalType": "address",
              "name": "buyer",
              "type": "address"
            },
            {
              "internalType": "address",
              "name": "contributor",
              "type": "address"
            },
            {
              "internalType": "uint256",
              "name": "amount",
              "type": "uint256"
            },
            {
              "internalType": "uint256",
              "name": "platformFee",
              "type": "uint256"
            },
            {
              "internalType": "uint256",
              "name": "contributorPayout",
              "type": "uint256"
            },
            {
              "internalType": "bool",
              "name": "isSubscription",
              "type": "bool"
            },
            {
              "internalType": "bool",
              "name": "settled",
              "type": "bool"
            },
            {
              "internalType": "uint256",
              "name": "purchasedAt",
              "type": "uint256"
            }
          ],
          "internalType": "struct DataMarketplace.Purchase",
          "name": "",
          "type": "tuple"
        }
      ],
      "stateMutability": "view",
      "type": "function"
    },
    {
      "inputs": [
        {
          "internalType": "address",
          "name": "buyer",
          "type": "address"
        },
        {
          "internalType": "uint256",
          "name": "datasetId",
          "type": "uint256"
        }
      ],
      "name": "hasActiveAccess",
      "outputs": [
        {
          "internalType": "bool",
          "name": "",
          "type": "bool"
        }
      ],
      "stateMutability": "view",
      "type": "function"
    },
    {
      "inputs": [
        {
          "internalType": "address",
          "name": "buyer",
          "type": "address"
        },
        {
          "internalType": "uint256",
          "name": "datasetId",
          "type": "uint256"
        }
      ],
      "name": "hasPurchased",
      "outputs": [
        {
          "internalType": "bool",
          "name": "",
          "type": "bool"
        }
      ],
      "stateMutability": "view",
      "type": "function"
    },
    {
      "inputs": [],
      "name": "owner",
      "outputs": [
        {
          "internalType": "address",
          "name": "",
          "type": "address"
        }
      ],
      "stateMutability": "view",
      "type": "function"
    },
    {
      "inputs": [],
      "name": "platformFeeBps",
      "outputs": [
        {
          "internalType": "uint256",
          "name": "",
          "type": "uint256"
        }
      ],
      "stateMutability": "view",
      "type": "function"
    },
    {
      "inputs": [],
      "name": "platformWallet",
      "outputs": [
        {
          "internalType": "address",
          "name": "",
          "type": "address"
        }
      ],
      "stateMutability": "view",
      "type": "function"
    },
    {
      "inputs": [
        {
          "internalType": "uint256",
          "name": "datasetId",
          "type": "uint256"
        }
      ],
      "name": "purchaseAccess",
      "outputs": [],
      "stateMutability": "payable",
      "type": "function"
    },
    {
      "inputs": [
        {
          "internalType": "uint256",
          "name": "datasetId",
          "type": "uint256"
        }
      ],
      "name": "purchaseSubscription",
      "outputs": [],
      "stateMutability": "payable",
      "type": "function"
    },
    {
      "inputs": [],
      "name": "registry",
      "outputs": [
        {
          "internalType": "contract DataRegistry",
          "name": "",
          "type": "address"
        }
      ],
      "stateMutability": "view",
      "type": "function"
    },
    {
      "inputs": [
        {
          "internalType": "address",
          "name": "newOwner",
          "type": "address"
        }
      ],
      "name": "transferOwnership",
      "outputs": [],
      "stateMutability": "nonpayable",
      "type": "function"
    },
    {
      "inputs": [
        {
          "internalType": "uint256",
          "name": "newFeeBps",
          "type": "uint256"
        }
      ],
      "name": "updatePlatformFee",
      "outputs": [],
      "stateMutability": "nonpayable",
      "type": "function"
    },
    {
      "inputs": [
        {
          "internalType": "address",
          "name": "newWallet",
          "type": "address"
        }
      ],
      "name": "updatePlatformWallet",
      "outputs": [],
      "stateMutability": "nonpayable",
      "type": "function"
    },
    {
      "inputs": [],
      "name": "withdraw",
      "outputs": [],
      "stateMutability": "nonpayable",
      "type": "function"
    },
    {
      "stateMutability": "payable",
      "type": "receive"
    }
  ],
  "bytecode": "0x608060405234801561000f575f5ffd5b50604051611bcf380380611bcf83398101604081905261002e91610191565b6001600160a01b0383166100895760405162461bcd60e51b815260206004820152601a60248201527f4d61726b6574706c6163653a207a65726f20726567697374727900000000000060448201526064015b60405180910390fd5b6001600160a01b0382166100df5760405162461bcd60e51b815260206004820152601860248201527f4d61726b6574706c6163653a207a65726f2077616c6c657400000000000000006044820152606401610080565b6107d08111156101315760405162461bcd60e51b815260206004820152601960248201527f4d61726b6574706c6163653a2066656520746f6f2068696768000000000000006044820152606401610080565b5f80546001600160a01b039485166001600160a01b031991821617909155600180549390941692811692909217835560035560028054909116331790556004556101ca565b80516001600160a01b038116811461018c575f5ffd5b919050565b5f5f5f606084860312156101a3575f5ffd5b6101ac84610176565b92506101ba60208501610176565b9150604084015190509250925092565b6119f8806101d75f395ff3fe6080604052600436106100f2575f3560e01c80638da5cb5b11610087578063b91d0a2f11610057578063b91d0a2f146102af578063f2fde38b146102c2578063fa2af9da146102e1578063fddbcd1b14610300575f5ffd5b80638da5cb5b1461023f5780638edf72f51461025e578063aa0b598814610271578063ada4ef3014610290575f5ffd5b80633ccfd60b116100c25780633ccfd60b1461019557806351d550d2146101a95780637b103999146101dd57806385a3439314610213575f5ffd5b806311923132146100fd5780631380e8ec1461013157806322dcd13e146101465780633742a9f714610169575f5ffd5b366100f957005b5f5ffd5b348015610108575f5ffd5b5061011c6101173660046114c7565b61031f565b60405190151581526020015b60405180910390f35b61014461013f3660046114f1565b61034c565b005b348015610151575f5ffd5b5061015b60035481565b604051908152602001610128565b348015610174575f5ffd5b50610188610183366004611562565b61068b565b6040516101289190611579565b3480156101a0575f5ffd5b50610144610787565b3480156101b4575f5ffd5b5061015b6101c336600461161c565b6001600160a01b03165f9081526007602052604090205490565b3480156101e8575f5ffd5b505f546101fb906001600160a01b031681565b6040516001600160a01b039091168152602001610128565b34801561021e575f5ffd5b5061023261022d36600461161c565b6108c0565b6040516101289190611637565b34801561024a575f5ffd5b506002546101fb906001600160a01b031681565b61014461026c366004611562565b610929565b34801561027c575f5ffd5b5061014461028b366004611562565b610c2d565b34801561029b575f5ffd5b506101446102aa36600461161c565b610ce5565b6101446102bd366004611562565b610daf565b3480156102cd575f5ffd5b506101446102dc36600461161c565b610f68565b3480156102ec575f5ffd5b506001546101fb906001600160a01b031681565b34801561030b575f5ffd5b5061011c61031a3660046114c7565b611006565b6001600160a01b0382165f90815260086020908152604080832084845290915290205460ff165b92915050565b5f808267ffffffffffffffff81111561036757610367611679565b60405190808252806020026020018201604052801561040857816020015b6103f5604080516101e0810182525f80825260208201819052918101829052606080820181905260808201529060a082019081526020015f81526020015f81526020015f81526020015f81526020015f81526020015f81526020015f81526020015f81526020015f151581525090565b8152602001906001900390816103855790505b5090505f5b838110156105b7575f80546001600160a01b031663ee0042218787858181106104385761043861168d565b905060200201356040518263ffffffff1660e01b815260040161045d91815260200190565b5f60405180830381865afa158015610477573d5f5f3e3d5ffd5b505050506040513d5f823e601f3d908101601f1916820160405261049e9190810190611791565b90505f8160e0015160028111156104b7576104b76118dd565b146105155760405162461bcd60e51b8152602060048201526024808201527f4d61726b6574706c6163653a20612064617461736574206973206e6f742061636044820152637469766560e01b60648201526084015b60405180910390fd5b60208101516001600160a01b0316330361057d5760405162461bcd60e51b815260206004820152602360248201527f4d61726b6574706c6163653a2063616e6e6f7420627579206f776e20646174616044820152621cd95d60ea1b606482015260840161050c565b808383815181106105905761059061168d565b6020026020010181905250806101000151846105ac9190611905565b93505060010161040d565b508134146106135760405162461bcd60e51b815260206004820152602360248201527f4d61726b6574706c6163653a20696e636f72726563742062756c6b207061796d604482015262195b9d60ea1b606482015260840161050c565b5f5b838110156106845761067c8585838181106106325761063261168d565b9050602002013583838151811061064b5761064b61168d565b6020026020010151602001518484815181106106695761066961168d565b602002602001015161010001515f6110ab565b600101610615565b5050505050565b6106ed6040518061014001604052805f81526020015f81526020015f6001600160a01b031681526020015f6001600160a01b031681526020015f81526020015f81526020015f81526020015f151581526020015f151581526020015f81525090565b505f908152600560208181526040928390208351610140810185528154815260018201549281019290925260028101546001600160a01b039081169483019490945260038101549093166060820152600483015460808201529082015460a0820152600682015460c0820152600782015460ff808216151560e0840152610100918290041615159082015260089091015461012082015290565b335f90815260076020526040902054806107e35760405162461bcd60e51b815260206004820181905260248201527f4d61726b6574706c6163653a206e6f7468696e6720746f207769746864726177604482015260640161050c565b335f818152600760205260408082208290555190919083908381818185875af1925050503d805f8114610831576040519150601f19603f3d011682016040523d82523d5f602084013e610836565b606091505b50509050806108875760405162461bcd60e51b815260206004820152601e60248201527f4d61726b6574706c6163653a207769746864726177616c206661696c65640000604482015260640161050c565b60405182815233907f7084f5476618d8e60b11ef0d7d3f06914655adb8793e28ff7f018d4c76d505d59060200160405180910390a25050565b6001600160a01b0381165f9081526006602090815260409182902080548351818402810184019094528084526060939283018282801561091d57602002820191905f5260205f20905b815481526020019060010190808311610909575b50505050509050919050565b5f805460405163ee00422160e01b8152600481018490526001600160a01b039091169063ee004221906024015f60405180830381865afa15801561096f573d5f5f3e3d5ffd5b505050506040513d5f823e601f3d908101601f191682016040526109969190810190611791565b90505f8160e0015160028111156109af576109af6118dd565b146109fc5760405162461bcd60e51b815260206004820152601f60248201527f4d61726b6574706c6163653a2064617461736574206e6f742061637469766500604482015260640161050c565b5f81610120015111610a615760405162461bcd60e51b815260206004820152602860248201527f4d61726b6574706c6163653a20737562736372697074696f6e73206e6f7420616044820152677661696c61626c6560c01b606482015260840161050c565b8061012001513414610ac85760405162461bcd60e51b815260206004820152602a60248201527f4d61726b6574706c6163653a20696e636f7272656374207375627363726970746044820152691a5bdb88185b5bdd5b9d60b21b606482015260840161050c565b60208101516001600160a01b03163303610b4a5760405162461bcd60e51b815260206004820152603860248201527f4d61726b6574706c6163653a20636f6e7472696275746f722063616e6e6f742060448201527f73756273637269626520746f206f776e20646174617365740000000000000000606482015260840161050c565b5f54604051632f7315b160e01b8152600481018490523360248201526001600160a01b0390911690632f7315b190604401602060405180830381865afa158015610b96573d5f5f3e3d5ffd5b505050506040513d601f19601f82011682018060405250810190610bba9190611918565b15610c185760405162461bcd60e51b815260206004820152602860248201527f4d61726b6574706c6163653a20737562736372697074696f6e20616c72656164604482015267792061637469766560c01b606482015260840161050c565b610c298282602001513460016110ab565b5050565b6002546001600160a01b03163314610c575760405162461bcd60e51b815260040161050c90611931565b6107d0811115610ca95760405162461bcd60e51b815260206004820152601960248201527f4d61726b6574706c6163653a2066656520746f6f206869676800000000000000604482015260640161050c565b60038190556040518181527f45610d581145924dd7090a5017e5f2b1d6f42213bb2e95707ff86846bbfcb1ca906020015b60405180910390a150565b6002546001600160a01b03163314610d0f5760405162461bcd60e51b815260040161050c90611931565b6001600160a01b038116610d615760405162461bcd60e51b81526020600482015260196024820152784d61726b6574706c6163653a207a65726f206164647265737360381b604482015260640161050c565b600180546001600160a01b0319166001600160a01b0383169081179091556040519081527f73238e3ae0a71b401b31ae67204506d074de41bd5c084082fba9b64b1c7fa28f90602001610cda565b5f805460405163ee00422160e01b8152600481018490526001600160a01b039091169063ee004221906024015f60405180830381865afa158015610df5573d5f5f3e3d5ffd5b505050506040513d5f823e601f3d908101601f19168201604052610e1c9190810190611791565b90505f8160e001516002811115610e3557610e356118dd565b14610e825760405162461bcd60e51b815260206004820152601f60248201527f4d61726b6574706c6163653a2064617461736574206e6f742061637469766500604482015260640161050c565b8061010001513414610ee45760405162461bcd60e51b815260206004820152602560248201527f4d61726b6574706c6163653a20696e636f7272656374207061796d656e7420616044820152641b5bdd5b9d60da1b606482015260840161050c565b60208101516001600160a01b03163303610f585760405162461bcd60e51b815260206004820152602f60248201527f4d61726b6574706c6163653a20636f6e7472696275746f722063616e6e6f742060448201526e189d5e481bdddb8819185d185cd95d608a1b606482015260840161050c565b610c29828260200151345f6110ab565b6002546001600160a01b03163314610f925760405162461bcd60e51b815260040161050c90611931565b6001600160a01b038116610fe45760405162461bcd60e51b81526020600482015260196024820152784d61726b6574706c6163653a207a65726f206164647265737360381b604482015260640161050c565b600280546001600160a01b0319166001600160a01b0392909216919091179055565b6001600160a01b0382165f90815260086020908152604080832084845290915281205460ff16806110a457505f54604051632f7315b160e01b8152600481018490526001600160a01b03858116602483015290911690632f7315b190604401602060405180830381865afa158015611080573d5f5f3e3d5ffd5b505050506040513d601f19601f820116820180604052508101906110a49190611918565b9392505050565b5f612710600354846110bd9190611961565b6110c79190611978565b90505f6110d48285611997565b600480549192505f9190826110e8836119aa565b919050559050604051806101400160405280828152602001888152602001336001600160a01b03168152602001876001600160a01b0316815260200186815260200184815260200183815260200185151581526020016001151581526020014281525060055f8381526020019081526020015f205f820151815f0155602082015181600101556040820151816002015f6101000a8154816001600160a01b0302191690836001600160a01b031602179055506060820151816003015f6101000a8154816001600160a01b0302191690836001600160a01b031602179055506080820151816004015560a0820151816005015560c0820151816006015560e0820151816007015f6101000a81548160ff0219169083151502179055506101008201518160070160016101000a81548160ff021916908315150217905550610120820151816008015590505060065f336001600160a01b03166001600160a01b031681526020019081526020015f2081908060018154018082558091505060019003905f5260205f20015f9091909190915055600160085f336001600160a01b03166001600160a01b031681526020019081526020015f205f8981526020019081526020015f205f6101000a81548160ff0219169083151502179055508160075f886001600160a01b03166001600160a01b031681526020019081526020015f205f8282546112f59190611905565b909155505082156113b4576001546040515f916001600160a01b03169085908381818185875af1925050503d805f811461134a576040519150601f19603f3d011682016040523d82523d5f602084013e61134f565b606091505b50509050806113b25760405162461bcd60e51b815260206004820152602960248201527f4d61726b6574706c6163653a20706c6174666f726d20666565207472616e7366604482015268195c8819985a5b195960ba1b606482015260840161050c565b505b5f54604051630d9a5fa360e21b8152600481018990523360248201526044810187905285151560648201526001600160a01b03909116906336697e8c906084015f604051808303815f87803b15801561140b575f5ffd5b505af115801561141d573d5f5f3e3d5ffd5b50506040805188815287151560208201523393508a925084917f56822ef4fcd8d4670509486550fd695811bac6b63ad9d490c4b6952fbd1c7ce5910160405180910390a460408051838152602081018590526001600160a01b0388169183917f93087b5deb2e1256912f2e1f12e16d4611a756e793b182e938bb3f2a499e8c07910160405180910390a350505050505050565b6001600160a01b03811681146114c4575f5ffd5b50565b5f5f604083850312156114d8575f5ffd5b82356114e3816114b0565b946020939093013593505050565b5f5f60208385031215611502575f5ffd5b823567ffffffffffffffff811115611518575f5ffd5b8301601f81018513611528575f5ffd5b803567ffffffffffffffff81111561153e575f5ffd5b8560208260051b8401011115611552575f5ffd5b6020919091019590945092505050565b5f60208284031215611572575f5ffd5b5035919050565b5f61014082019050825182526020830151602083015260408301516115a960408401826001600160a01b03169052565b5060608301516115c460608401826001600160a01b03169052565b506080830151608083015260a083015160a083015260c083015160c083015260e08301516115f660e084018215159052565b5061010083015161160c61010084018215159052565b5061012092830151919092015290565b5f6020828403121561162c575f5ffd5b81356110a4816114b0565b602080825282518282018190525f918401906040840190835b8181101561166e578351835260209384019390920191600101611650565b509095945050505050565b634e487b7160e01b5f52604160045260245ffd5b634e487b7160e01b5f52603260045260245ffd5b6040516101e0810167ffffffffffffffff811182821017156116c5576116c5611679565b60405290565b80516116d6816114b0565b919050565b5f82601f8301126116ea575f5ffd5b815167ffffffffffffffff81111561170457611704611679565b604051601f8201601f19908116603f0116810167ffffffffffffffff8111828210171561173357611733611679565b60405281815283820160200185101561174a575f5ffd5b8160208501602083015e5f918101602001919091529392505050565b8051600881106116d6575f5ffd5b8051600381106116d6575f5ffd5b805180151581146116d6575f5ffd5b5f602082840312156117a1575f5ffd5b815167ffffffffffffffff8111156117b7575f5ffd5b82016101e081850312156117c9575f5ffd5b6117d16116a1565b815181526117e1602083016116cb565b60208201526117f2604083016116cb565b6040820152606082015167ffffffffffffffff811115611810575f5ffd5b61181c868285016116db565b606083015250608082015167ffffffffffffffff81111561183b575f5ffd5b611847868285016116db565b60808301525061185960a08301611766565b60a082015261186a60c08301611774565b60c082015261187b60e08301611774565b60e0820152610100828101519082015261012080830151908201526101408083015190820152610160808301519082015261018080830151908201526101a080830151908201526118cf6101c08301611782565b6101c0820152949350505050565b634e487b7160e01b5f52602160045260245ffd5b634e487b7160e01b5f52601160045260245ffd5b80820180821115610346576103466118f1565b5f60208284031215611928575f5ffd5b6110a482611782565b60208082526016908201527526b0b935b2ba383630b1b29d103737ba1037bbb732b960511b604082015260600190565b8082028115828204841417610346576103466118f1565b5f8261199257634e487b7160e01b5f52601260045260245ffd5b500490565b81810381811115610346576103466118f1565b5f600182016119bb576119bb6118f1565b506001019056fea26469706673582212203c45ea81f31e5231770b032820f47f56fc60c0f3c5f2f1435ac618123062c2d064736f6c634300081c0033",
  "linkReferences": {},
  "deployedLinkReferences": {},
  "immutableReferences": {},
  "inputSourceName": "project/contracts/DataMarketplace.sol",
  "buildInfoId": "solc-0_8_28-b192cf4cd3e5deae40ca8ad9593b7c32eb5ccba2"
}